:1000000012C022C021C020C01FC01EC01DC01CC005
:100010001BC01AC019C023C017C016C015C014C019
:1000200013C012C011C011241FBECFEDCDBF10E010
:10003000A0E6B0E0ECE6F7E002C005900D92A83B28
:10004000B107D9F7D0D090C3DBCF789485B7806261
:1000500085BF889585B78F7D85BFF89408951895DD
:10006000CF93DF9397B3957097BB98B3957098BB78
:1000700091B3907891BB92B3907892BB853208F09F
:100080004EC0982F977021E030E001C0220F9A9562
:10009000EAF7682F659565956595062E000C770B38
:1000A000FB01E05AFF4F9081922319F4E8E3F0E05E
:1000B00002C0E2E3F0E0DF013E91880F990BEC0112
:1000C000C259DF4F41E050E0088002C0440F551F85
:1000D0000A94E2F7342B3C933081432B4083FB019D
:1000E000EB59FF4F3081232319F4E8E3F0E002C01D
:1000F000E2E3F0E0DF014E91EC01C259DF4F21E075
:1001000030E0C901098002C0880F991F0A94E2F704
:10011000942F982B9C939081809589238083DF91E5
:10012000CF910895AF92BF92CF92DF92EF92FF925C
:100130000F931F93CF93DF93CEE1D0E08EE6A82EEE
:10014000B12C04E110E094E2E92EF12C24ECC22E53
:1001500029E0D22EC832D10518F4CE01BE0104C068
:10016000B5016C1B7D0BCB0117D2B80126D2CB0198
:10017000B70123D275DFC6010197F1F72196C0358B
:10018000D10541F78FE7DF91CF911F910F91FF903C
:10019000EF90DF90CF90BF90AF9062CF81110DC0F4
:1001A00085E02FE0C29A922F9A95F1F7C298922F8C
:1001B0009A95F1F78150B1F7089523E036E068EAA7
:1001C00071E68CED95E0C29A432F4A95F1F7C298FB
:1001D000432F4A95F1F70197B1F7CB010197F1F75A
:1001E000215079F7089585B7806585BF8BB7806208
:1001F0008BBF81E080BD84E087BBC09A81E0CEDF09
:100200009DE0392E25E2C22ED12C3CE0E32EF12CCC
:10021000B0996FC0C32D42D2B601E3D1382ED0E0E1
:100220008C0111278C2F1CDF80E0B8DF2C2F0C2EC7
:10023000000C330BD53091F40217130779F481E0E9
:10024000ADDF70DF8C2F0CDF88E99AE3F70131977F
:10025000F1F70197D9F78FE703DF4BC08D2F90E0BF
:1002600065E270E099D1820F931F97FD0196BC0162
:1002700075956795072E000C880B990B6ED02B0196
:100280003C0120E030E04AEF52E4F3D04B015C0146
:1002900020E030E040E85FE32ED087FD1EC020E084
:1002A0003FEF4FE757E4C501B401DFD018168CF4D7
:1002B00020E030E040E251E4C301B201DAD01FD0C7
:1002C0006115710579F0C7010197F1F76150710966
:1002D000F7CFC501B40113D002C061E070E0CB01DB
:1002E0000197F1F7C43214F4CF5F9CCFDF5FC0E019
:1002F00099CFABDE8DCF6CD008F481E0089594D017
:1003000088F09F5790F0B92F9927B751A0F0D1F0FE
:10031000660F771F881F991F1AF0BA95C9F712C088
:10032000B13081F09BD0B1E0089598C0672F782F4D
:100330008827B85F39F0B93FCCF3869577956795F4
:10034000B395D9F73EF490958095709561957F4F60
:100350008F4F9F4F0895E89409C097FB3EF4909506
:100360008095709561957F4F8F4F9F4F9923A9F08E
:10037000F92F96E9BB279395F6958795779567951D
:10038000B795F111F8CFFAF4BB0F11F460FF1BC061
:100390006F5F7F4F8F4F9F4F16C0882311F096E9F4
:1003A00011C0772321F09EE8872F762F05C06623A2
:1003B00071F096E8862F70E060E02AF09A95660F5B
:1003C000771F881FDAF7880F9695879597F9089514
:1003D000990F0008550FAA0BE0E8FEEF1616170656
:1003E000E807F907C0F012161306E407F50798F0BE
:1003F000621B730B840B950B39F40A2661F0232BD7
:10040000242B252B21F408950A2609F4A140A69552
:100410008FEF811D811D089557FD9058440F551F82
:1004200059F05F3F71F04795880F97FB991F61F076
:100430009F3F79F087950895121613061406551FED
:10044000F2CF4695F1DF08C0161617061806991F59
:10045000F1CF86957105610508940895E894BB274E
:1004600066277727CB0197F90895B2DF08F48FEF5D
:1004700008950AD080C071D028F076D018F0952366
:1004800009F062C067C0EBCFC7DFA8F39923D9F3A7
:100490005523C9F3950F50E0551FAA27EE27FF27D4
:1004A000BB2700240894679520F4E20FF31FB41FC4
:1004B0000A1E220F331F441FAA1F6695A9F77795BE
:1004C00030F4F30FB41F0A1E121E08F46395330FA5
:1004D000441FAA1F221F769599F7879520F4B40F21
:1004E0000A1E121E631F440FAA1F221F331F869568
:1004F000A9F7862F712D602D11249F5750408AF047
:10050000E1F088234AF0EE0FFF1FBB1F661F771F25
:10051000881F91505040A9F79E3F510570F014C0BC
:100520009ECF5F3FECF3983EDCF386957795679519
:10053000B795F795E7959F5FC1F7FE2B880F911D43
:100540009695879597F9089597F99F6780E870E0E9
:1005500060E008959FEF80EC089500240A94161639
:10056000170618060906089500240A9412161306A1
:10057000140605060895092E0394000C11F488232F
:1005800052F0BB0F40F4BF2B11F460FF04C06F5F4B
:100590007F4F8F4F9F4F08950024552704C0080EAA
:1005A000591F880F991F009729F076956795B8F322
:1005B0007105B9F7802D952F0895AA1BBB1B51E13A
:1005C00007C0AA1FBB1FA617B70710F0A61BB70BC3
:1005D000881F991F5A95A9F780959095BC01CD0168
:1005E000089597FB072E16F4009406D077FD08D0E7
:1005F000E4DF07FC05D03EF4909581959F4F089568
:10060000709561957F4F08958F929F92AF92BF92A0
:10061000CF92DF92EF92FF92CF93DF93EC0168814C
:1006200079818A819B81611571058105910521F48C
:1006300064E279ED8BE597E02DE133EF41E050E0A6
:1006400055D049015A0127EA31E440E050E035D065
:100650006B017C012CEE34EF4FEF5FEFC501B4016D
:100660002CD0DC01CB018C0D9D1DAE1DBF1DB7FF35
:1006700003C00197A109B04888839983AA83BB83EB
:100680009F77DF91CF91FF90EF90DF90CF90BF9059
:10069000AF909F908F900895B7DF08958AE690E01D
:1006A000B3DF0895A0E0B0E080936A0090936B0000
:1006B000A0936C00B0936D000895EE27FF27AA2742
:1006C000BB2708C0A20FB31FE41FF51F220F331F63
:1006D000441F551F969587957795679598F37040B9
:1006E000A9F7009799F7BD01CF010895052E97FB53
:1006F00016F400940FD057FD05D014D007FC02D09B
:1007000046F408C050954095309521953F4F4F4F86
:100710005F4F089590958095709561957F4F8F4FAD
:100720009F4F0895A1E21A2EAA1BBB1BFD010DC00D
:10073000AA1FBB1FEE1FFF1FA217B307E407F50791
:1007400020F0A21BB30BE40BF50B661F771F881F6D
:10075000991F1A9469F760957095809590959B0103
:0C076000AC01BD01CF010895F894FFCF5B
:10076C00F2CF3F0000BC3F3F00000100000003013E
:10077C00030101030106050606050601040505042F
:10078C000304040300030104010505010401010035
:10079C00000102000102020100020706060705061D
:1007AC0006050705050705040405030404030704EF
:0807BC00040707030307010312
:00000001FF
